{
  "contractName": "ImageNFT",
  "abi": [
    {
      "inputs": [],
      "stateMutability": "nonpayable",
      "type": "constructor"
    },
    {
      "anonymous": false,
      "inputs": [
        {
          "indexed": true,
          "internalType": "address",
          "name": "owner",
          "type": "address"
        },
        {
          "indexed": true,
          "internalType": "address",
          "name": "approved",
          "type": "address"
        },
        {
          "indexed": true,
          "internalType": "uint256",
          "name": "tokenId",
          "type": "uint256"
        }
      ],
      "name": "Approval",
      "type": "event"
    },
    {
      "anonymous": false,
      "inputs": [
        {
          "indexed": true,
          "internalType": "address",
          "name": "owner",
          "type": "address"
        },
        {
          "indexed": true,
          "internalType": "address",
          "name": "operator",
          "type": "address"
        },
        {
          "indexed": false,
          "internalType": "bool",
          "name": "approved",
          "type": "bool"
        }
      ],
      "name": "ApprovalForAll",
      "type": "event"
    },
    {
      "anonymous": false,
      "inputs": [
        {
          "indexed": true,
          "internalType": "address",
          "name": "previousOwner",
          "type": "address"
        },
        {
          "indexed": true,
          "internalType": "address",
          "name": "newOwner",
          "type": "address"
        }
      ],
      "name": "OwnershipTransferred",
      "type": "event"
    },
    {
      "anonymous": false,
      "inputs": [
        {
          "indexed": true,
          "internalType": "address",
          "name": "from",
          "type": "address"
        },
        {
          "indexed": true,
          "internalType": "address",
          "name": "to",
          "type": "address"
        },
        {
          "indexed": true,
          "internalType": "uint256",
          "name": "tokenId",
          "type": "uint256"
        }
      ],
      "name": "Transfer",
      "type": "event"
    },
    {
      "inputs": [
        {
          "internalType": "address",
          "name": "to",
          "type": "address"
        },
        {
          "internalType": "uint256",
          "name": "tokenId",
          "type": "uint256"
        }
      ],
      "name": "approve",
      "outputs": [],
      "stateMutability": "nonpayable",
      "type": "function"
    },
    {
      "inputs": [
        {
          "internalType": "address",
          "name": "owner",
          "type": "address"
        }
      ],
      "name": "balanceOf",
      "outputs": [
        {
          "internalType": "uint256",
          "name": "",
          "type": "uint256"
        }
      ],
      "stateMutability": "view",
      "type": "function",
      "constant": true
    },
    {
      "inputs": [
        {
          "internalType": "uint256",
          "name": "tokenId",
          "type": "uint256"
        }
      ],
      "name": "getApproved",
      "outputs": [
        {
          "internalType": "address",
          "name": "",
          "type": "address"
        }
      ],
      "stateMutability": "view",
      "type": "function",
      "constant": true
    },
    {
      "inputs": [
        {
          "internalType": "address",
          "name": "owner",
          "type": "address"
        },
        {
          "internalType": "address",
          "name": "operator",
          "type": "address"
        }
      ],
      "name": "isApprovedForAll",
      "outputs": [
        {
          "internalType": "bool",
          "name": "",
          "type": "bool"
        }
      ],
      "stateMutability": "view",
      "type": "function",
      "constant": true
    },
    {
      "inputs": [],
      "name": "name",
      "outputs": [
        {
          "internalType": "string",
          "name": "",
          "type": "string"
        }
      ],
      "stateMutability": "view",
      "type": "function",
      "constant": true
    },
    {
      "inputs": [],
      "name": "owner",
      "outputs": [
        {
          "internalType": "address",
          "name": "",
          "type": "address"
        }
      ],
      "stateMutability": "view",
      "type": "function",
      "constant": true
    },
    {
      "inputs": [
        {
          "internalType": "uint256",
          "name": "tokenId",
          "type": "uint256"
        }
      ],
      "name": "ownerOf",
      "outputs": [
        {
          "internalType": "address",
          "name": "",
          "type": "address"
        }
      ],
      "stateMutability": "view",
      "type": "function",
      "constant": true
    },
    {
      "inputs": [],
      "name": "renounceOwnership",
      "outputs": [],
      "stateMutability": "nonpayable",
      "type": "function"
    },
    {
      "inputs": [
        {
          "internalType": "address",
          "name": "from",
          "type": "address"
        },
        {
          "internalType": "address",
          "name": "to",
          "type": "address"
        },
        {
          "internalType": "uint256",
          "name": "tokenId",
          "type": "uint256"
        }
      ],
      "name": "safeTransferFrom",
      "outputs": [],
      "stateMutability": "nonpayable",
      "type": "function"
    },
    {
      "inputs": [
        {
          "internalType": "address",
          "name": "from",
          "type": "address"
        },
        {
          "internalType": "address",
          "name": "to",
          "type": "address"
        },
        {
          "internalType": "uint256",
          "name": "tokenId",
          "type": "uint256"
        },
        {
          "internalType": "bytes",
          "name": "_data",
          "type": "bytes"
        }
      ],
      "name": "safeTransferFrom",
      "outputs": [],
      "stateMutability": "nonpayable",
      "type": "function"
    },
    {
      "inputs": [
        {
          "internalType": "address",
          "name": "operator",
          "type": "address"
        },
        {
          "internalType": "bool",
          "name": "approved",
          "type": "bool"
        }
      ],
      "name": "setApprovalForAll",
      "outputs": [],
      "stateMutability": "nonpayable",
      "type": "function"
    },
    {
      "inputs": [
        {
          "internalType": "bytes4",
          "name": "interfaceId",
          "type": "bytes4"
        }
      ],
      "name": "supportsInterface",
      "outputs": [
        {
          "internalType": "bool",
          "name": "",
          "type": "bool"
        }
      ],
      "stateMutability": "view",
      "type": "function",
      "constant": true
    },
    {
      "inputs": [],
      "name": "symbol",
      "outputs": [
        {
          "internalType": "string",
          "name": "",
          "type": "string"
        }
      ],
      "stateMutability": "view",
      "type": "function",
      "constant": true
    },
    {
      "inputs": [
        {
          "internalType": "uint256",
          "name": "tokenId",
          "type": "uint256"
        }
      ],
      "name": "tokenURI",
      "outputs": [
        {
          "internalType": "string",
          "name": "",
          "type": "string"
        }
      ],
      "stateMutability": "view",
      "type": "function",
      "constant": true
    },
    {
      "inputs": [
        {
          "internalType": "address",
          "name": "from",
          "type": "address"
        },
        {
          "internalType": "address",
          "name": "to",
          "type": "address"
        },
        {
          "internalType": "uint256",
          "name": "tokenId",
          "type": "uint256"
        }
      ],
      "name": "transferFrom",
      "outputs": [],
      "stateMutability": "nonpayable",
      "type": "function"
    },
    {
      "inputs": [
        {
          "internalType": "address",
          "name": "newOwner",
          "type": "address"
        }
      ],
      "name": "transferOwnership",
      "outputs": [],
      "stateMutability": "nonpayable",
      "type": "function"
    },
    {
      "inputs": [
        {
          "internalType": "address",
          "name": "recipient",
          "type": "address"
        },
        {
          "internalType": "string",
          "name": "tokenURI",
          "type": "string"
        },
        {
          "internalType": "string",
          "name": "imageHash",
          "type": "string"
        }
      ],
      "name": "mintNFT",
      "outputs": [
        {
          "internalType": "uint256",
          "name": "",
          "type": "uint256"
        }
      ],
      "stateMutability": "nonpayable",
      "type": "function"
    },
    {
      "inputs": [
        {
          "internalType": "string",
          "name": "imageHash",
          "type": "string"
        }
      ],
      "name": "verifyImage",
      "outputs": [
        {
          "internalType": "bool",
          "name": "",
          "type": "bool"
        }
      ],
      "stateMutability": "view",
      "type": "function",
      "constant": true
    }
  ],
  "bytecode": "0x60806040523480156200001157600080fd5b506040518060400160405280600881526020017f496d6167654e46540000000000000000000000000000000000000000000000008152506040518060400160405280600681526020017f494d474e46540000000000000000000000000000000000000000000000000000815250816000908051906020019062000096929190620001a6565b508060019080519060200190620000af929190620001a6565b505050620000d2620000c6620000d860201b60201c565b620000e060201b60201c565b620002bb565b600033905090565b6000600760009054906101000a900473ffffffffffffffffffffffffffffffffffffffff16905081600760006101000a81548173ffffffffffffffffffffffffffffffffffffffff021916908373ffffffffffffffffffffffffffffffffffffffff1602179055508173ffffffffffffffffffffffffffffffffffffffff168173ffffffffffffffffffffffffffffffffffffffff167f8be0079c531659141344cd1fd0a4f28419497f9722a3daafe3b4186f6b6457e060405160405180910390a35050565b828054620001b49062000256565b90600052602060002090601f016020900481019282620001d8576000855562000224565b82601f10620001f357805160ff191683800117855562000224565b8280016001018555821562000224579182015b828111156200022357825182559160200191906001019062000206565b5b50905062000233919062000237565b5090565b5b808211156200025257600081600090555060010162000238565b5090565b600060028204905060018216806200026f57607f821691505b602082108114156200028657620002856200028c565b5b50919050565b7f4e487b7100000000000000000000000000000000000000000000000000000000600052602260045260246000fd5b6130b580620002cb6000396000f3fe608060405234801561001057600080fd5b50600436106101165760003560e01c8063715018a6116100a2578063a3ee38ae11610071578063a3ee38ae146102df578063b88d4fde1461030f578063c87b56dd1461032b578063e985e9c51461035b578063f2fde38b1461038b57610116565b8063715018a61461027d5780638da5cb5b1461028757806395d89b41146102a5578063a22cb465146102c357610116565b80632321463c116100e95780632321463c146101b557806323b872dd146101e557806342842e0e146102015780636352211e1461021d57806370a082311461024d57610116565b806301ffc9a71461011b57806306fdde031461014b578063081812fc14610169578063095ea7b314610199575b600080fd5b610135600480360381019061013091906120ab565b6103a7565b60405161014291906129ad565b60405180910390f35b610153610489565b60405161016091906129c8565b60405180910390f35b610183600480360381019061017e919061213e565b61051b565b6040516101909190612946565b60405180910390f35b6101b360048036038101906101ae919061206f565b6105a0565b005b6101cf60048036038101906101ca91906120fd565b6106b8565b6040516101dc91906129ad565b60405180910390f35b6101ff60048036038101906101fa9190611eea565b6106ed565b005b61021b60048036038101906102169190611eea565b61074d565b005b6102376004803603810190610232919061213e565b61076d565b6040516102449190612946565b60405180910390f35b61026760048036038101906102629190611e85565b61081f565b6040516102749190612c4a565b60405180910390f35b6102856108d7565b005b61028f61095f565b60405161029c9190612946565b60405180910390f35b6102ad610989565b6040516102ba91906129c8565b60405180910390f35b6102dd60048036038101906102d89190611fb4565b610a1b565b005b6102f960048036038101906102f49190611ff0565b610a31565b6040516103069190612c4a565b60405180910390f35b61032960048036038101906103249190611f39565b610b89565b005b6103456004803603810190610340919061213e565b610beb565b60405161035291906129c8565b60405180910390f35b61037560048036038101906103709190611eae565b610d3d565b60405161038291906129ad565b60405180910390f35b6103a560048036038101906103a09190611e85565b610dd1565b005b60007f80ac58cd000000000000000000000000000000000000000000000000000000007bffffffffffffffffffffffffffffffffffffffffffffffffffffffff1916827bffffffffffffffffffffffffffffffffffffffffffffffffffffffff1916148061047257507f5b5e139f000000000000000000000000000000000000000000000000000000007bffffffffffffffffffffffffffffffffffffffffffffffffffffffff1916827bffffffffffffffffffffffffffffffffffffffffffffffffffffffff1916145b80610482575061048182610ec9565b5b9050919050565b60606000805461049890612eaa565b80601f01602080910402602001604051908101604052809291908181526020018280546104c490612eaa565b80156105115780601f106104e657610100808354040283529160200191610511565b820191906000526020600020905b8154815290600101906020018083116104f457829003601f168201915b5050505050905090565b600061052682610f33565b610565576040517f08c379a000000000000000000000000000000000000000000000000000000000815260040161055c90612b6a565b60405180910390fd5b6004600083815260200190815260200160002060009054906101000a900473ffffffffffffffffffffffffffffffffffffffff169050919050565b60006105ab8261076d565b90508073ffffffffffffffffffffffffffffffffffffffff168373ffffffffffffffffffffffffffffffffffffffff16141561061c576040517f08c379a000000000000000000000000000000000000000000000000000000000815260040161061390612bea565b60405180910390fd5b8073ffffffffffffffffffffffffffffffffffffffff1661063b610f9f565b73ffffffffffffffffffffffffffffffffffffffff16148061066a575061066981610664610f9f565b610d3d565b5b6106a9576040517f08c379a00000000000000000000000000000000000000000000000000000000081526004016106a090612aaa565b60405180910390fd5b6106b38383610fa7565b505050565b60006009826040516106ca919061290b565b908152602001604051809103902060009054906101000a900460ff169050919050565b6106fe6106f8610f9f565b82611060565b61073d576040517f08c379a000000000000000000000000000000000000000000000000000000000815260040161073490612c0a565b60405180910390fd5b61074883838361113e565b505050565b61076883838360405180602001604052806000815250610b89565b505050565b6000806002600084815260200190815260200160002060009054906101000a900473ffffffffffffffffffffffffffffffffffffffff169050600073ffffffffffffffffffffffffffffffffffffffff168173ffffffffffffffffffffffffffffffffffffffff161415610816576040517f08c379a000000000000000000000000000000000000000000000000000000000815260040161080d90612aea565b60405180910390fd5b80915050919050565b60008073ffffffffffffffffffffffffffffffffffffffff168273ffffffffffffffffffffffffffffffffffffffff161415610890576040517f08c379a000000000000000000000000000000000000000000000000000000000815260040161088790612aca565b60405180910390fd5b600360008373ffffffffffffffffffffffffffffffffffffffff1673ffffffffffffffffffffffffffffffffffffffff168152602001908152602001600020549050919050565b6108df610f9f565b73ffffffffffffffffffffffffffffffffffffffff166108fd61095f565b73ffffffffffffffffffffffffffffffffffffffff1614610953576040517f08c379a000000000000000000000000000000000000000000000000000000000815260040161094a90612b8a565b60405180910390fd5b61095d600061139a565b565b6000600760009054906101000a900473ffffffffffffffffffffffffffffffffffffffff16905090565b60606001805461099890612eaa565b80601f01602080910402602001604051908101604052809291908181526020018280546109c490612eaa565b8015610a115780601f106109e657610100808354040283529160200191610a11565b820191906000526020600020905b8154815290600101906020018083116109f457829003601f168201915b5050505050905090565b610a2d610a26610f9f565b8383611460565b5050565b6000610a3b610f9f565b73ffffffffffffffffffffffffffffffffffffffff16610a5961095f565b73ffffffffffffffffffffffffffffffffffffffff1614610aaf576040517f08c379a0000000000000000000000000000000000000000000000000000000008152600401610aa690612b8a565b60405180910390fd5b600982604051610abf919061290b565b908152602001604051809103902060009054906101000a900460ff1615610b1b576040517f08c379a0000000000000000000000000000000000000000000000000000000008152600401610b1290612c2a565b60405180910390fd5b610b2560086115cd565b6000610b3160086115e3565b9050610b3d85826115f1565b610b4781856117bf565b6001600984604051610b59919061290b565b908152602001604051809103902060006101000a81548160ff021916908315150217905550809150509392505050565b610b9a610b94610f9f565b83611060565b610bd9576040517f08c379a0000000000000000000000000000000000000000000000000000000008152600401610bd090612c0a565b60405180910390fd5b610be584848484611833565b50505050565b6060610bf682610f33565b610c35576040517f08c379a0000000000000000000000000000000000000000000000000000000008152600401610c2c90612b4a565b60405180910390fd5b6000600660008481526020019081526020016000208054610c5590612eaa565b80601f0160208091040260200160405190810160405280929190818152602001828054610c8190612eaa565b8015610cce5780601f10610ca357610100808354040283529160200191610cce565b820191906000526020600020905b815481529060010190602001808311610cb157829003601f168201915b505050505090506000610cdf61188f565b9050600081511415610cf5578192505050610d38565b600082511115610d2a578082604051602001610d12929190612922565b60405160208183030381529060405292505050610d38565b610d33846118a6565b925050505b919050565b6000600560008473ffffffffffffffffffffffffffffffffffffffff1673ffffffffffffffffffffffffffffffffffffffff16815260200190815260200160002060008373ffffffffffffffffffffffffffffffffffffffff1673ffffffffffffffffffffffffffffffffffffffff16815260200190815260200160002060009054906101000a900460ff16905092915050565b610dd9610f9f565b73ffffffffffffffffffffffffffffffffffffffff16610df761095f565b73ffffffffffffffffffffffffffffffffffffffff1614610e4d576040517f08c379a0000000000000000000000000000000000000000000000000000000008152600401610e4490612b8a565b60405180910390fd5b600073ffffffffffffffffffffffffffffffffffffffff168173ffffffffffffffffffffffffffffffffffffffff161415610ebd576040517f08c379a0000000000000000000000000000000000000000000000000000000008152600401610eb490612a0a565b60405180910390fd5b610ec68161139a565b50565b60007f01ffc9a7000000000000000000000000000000000000000000000000000000007bffffffffffffffffffffffffffffffffffffffffffffffffffffffff1916827bffffffffffffffffffffffffffffffffffffffffffffffffffffffff1916149050919050565b60008073ffffffffffffffffffffffffffffffffffffffff166002600084815260200190815260200160002060009054906101000a900473ffffffffffffffffffffffffffffffffffffffff1673ffffffffffffffffffffffffffffffffffffffff1614159050919050565b600033905090565b816004600083815260200190815260200160002060006101000a81548173ffffffffffffffffffffffffffffffffffffffff021916908373ffffffffffffffffffffffffffffffffffffffff160217905550808273ffffffffffffffffffffffffffffffffffffffff1661101a8361076d565b73ffffffffffffffffffffffffffffffffffffffff167f8c5be1e5ebec7d5bd14f71427d1e84f3dd0314c0f7b2291e5b200ac8c7c3b92560405160405180910390a45050565b600061106b82610f33565b6110aa576040517f08c379a00000000000000000000000000000000000000000000000000000000081526004016110a190612a8a565b60405180910390fd5b60006110b58361076d565b90508073ffffffffffffffffffffffffffffffffffffffff168473ffffffffffffffffffffffffffffffffffffffff16148061112457508373ffffffffffffffffffffffffffffffffffffffff1661110c8461051b565b73ffffffffffffffffffffffffffffffffffffffff16145b8061113557506111348185610d3d565b5b91505092915050565b8273ffffffffffffffffffffffffffffffffffffffff1661115e8261076d565b73ffffffffffffffffffffffffffffffffffffffff16146111b4576040517f08c379a00000000000000000000000000000000000000000000000000000000081526004016111ab90612baa565b60405180910390fd5b600073ffffffffffffffffffffffffffffffffffffffff168273ffffffffffffffffffffffffffffffffffffffff161415611224576040517f08c379a000000000000000000000000000000000000000000000000000000000815260040161121b90612a4a565b60405180910390fd5b61122f83838361194d565b61123a600082610fa7565b6001600360008573ffffffffffffffffffffffffffffffffffffffff1673ffffffffffffffffffffffffffffffffffffffff168152602001908152602001600020600082825461128a9190612dc0565b925050819055506001600360008473ffffffffffffffffffffffffffffffffffffffff1673ffffffffffffffffffffffffffffffffffffffff16815260200190815260200160002060008282546112e19190612d39565b92505081905550816002600083815260200190815260200160002060006101000a81548173ffffffffffffffffffffffffffffffffffffffff021916908373ffffffffffffffffffffffffffffffffffffffff160217905550808273ffffffffffffffffffffffffffffffffffffffff168473ffffffffffffffffffffffffffffffffffffffff167fddf252ad1be2c89b69c2b068fc378daa952ba7f163c4a11628f55a4df523b3ef60405160405180910390a4505050565b6000600760009054906101000a900473ffffffffffffffffffffffffffffffffffffffff16905081600760006101000a81548173ffffffffffffffffffffffffffffffffffffffff021916908373ffffffffffffffffffffffffffffffffffffffff1602179055508173ffffffffffffffffffffffffffffffffffffffff168173ffffffffffffffffffffffffffffffffffffffff167f8be0079c531659141344cd1fd0a4f28419497f9722a3daafe3b4186f6b6457e060405160405180910390a35050565b8173ffffffffffffffffffffffffffffffffffffffff168373ffffffffffffffffffffffffffffffffffffffff1614156114cf576040517f08c379a00000000000000000000000000000000000000000000000000000000081526004016114c690612a6a565b60405180910390fd5b80600560008573ffffffffffffffffffffffffffffffffffffffff1673ffffffffffffffffffffffffffffffffffffffff16815260200190815260200160002060008473ffffffffffffffffffffffffffffffffffffffff1673ffffffffffffffffffffffffffffffffffffffff16815260200190815260200160002060006101000a81548160ff0219169083151502179055508173ffffffffffffffffffffffffffffffffffffffff168373ffffffffffffffffffffffffffffffffffffffff167f17307eab39ab6107e8899845ad3d59bd9653f200f220920489ca2b5937696c31836040516115c091906129ad565b60405180910390a3505050565b6001816000016000828254019250508190555050565b600081600001549050919050565b600073ffffffffffffffffffffffffffffffffffffffff168273ffffffffffffffffffffffffffffffffffffffff161415611661576040517f08c379a000000000000000000000000000000000000000000000000000000000815260040161165890612b2a565b60405180910390fd5b61166a81610f33565b156116aa576040517f08c379a00000000000000000000000000000000000000000000000000000000081526004016116a190612a2a565b60405180910390fd5b6116b66000838361194d565b6001600360008473ffffffffffffffffffffffffffffffffffffffff1673ffffffffffffffffffffffffffffffffffffffff16815260200190815260200160002060008282546117069190612d39565b92505081905550816002600083815260200190815260200160002060006101000a81548173ffffffffffffffffffffffffffffffffffffffff021916908373ffffffffffffffffffffffffffffffffffffffff160217905550808273ffffffffffffffffffffffffffffffffffffffff16600073ffffffffffffffffffffffffffffffffffffffff167fddf252ad1be2c89b69c2b068fc378daa952ba7f163c4a11628f55a4df523b3ef60405160405180910390a45050565b6117c882610f33565b611807576040517f08c379a00000000000000000000000000000000000000000000000000000000081526004016117fe90612b0a565b60405180910390fd5b8060066000848152602001908152602001600020908051906020019061182e929190611ca9565b505050565b61183e84848461113e565b61184a84848484611952565b611889576040517f08c379a0000000000000000000000000000000000000000000000000000000008152600401611880906129ea565b60405180910390fd5b50505050565b606060405180602001604052806000815250905090565b60606118b182610f33565b6118f0576040517f08c379a00000000000000000000000000000000000000000000000000000000081526004016118e790612bca565b60405180910390fd5b60006118fa61188f565b9050600081511161191a5760405180602001604052806000815250611945565b8061192484611ae9565b604051602001611935929190612922565b6040516020818303038152906040525b915050919050565b505050565b60006119738473ffffffffffffffffffffffffffffffffffffffff16611c96565b15611adc578373ffffffffffffffffffffffffffffffffffffffff1663150b7a0261199c610f9f565b8786866040518563ffffffff1660e01b81526004016119be9493929190612961565b602060405180830381600087803b1580156119d857600080fd5b505af1925050508015611a0957506040513d601f19601f82011682018060405250810190611a0691906120d4565b60015b611a8c573d8060008114611a39576040519150601f19603f3d011682016040523d82523d6000602084013e611a3e565b606091505b50600081511415611a84576040517f08c379a0000000000000000000000000000000000000000000000000000000008152600401611a7b906129ea565b60405180910390fd5b805181602001fd5b63150b7a0260e01b7bffffffffffffffffffffffffffffffffffffffffffffffffffffffff1916817bffffffffffffffffffffffffffffffffffffffffffffffffffffffff191614915050611ae1565b600190505b949350505050565b60606000821415611b31576040518060400160405280600181526020017f30000000000000000000000000000000000000000000000000000000000000008152509050611c91565b600082905060005b60008214611b63578080611b4c90612edc565b915050600a82611b5c9190612d8f565b9150611b39565b60008167ffffffffffffffff811115611ba5577f4e487b7100000000000000000000000000000000000000000000000000000000600052604160045260246000fd5b6040519080825280601f01601f191660200182016040528015611bd75781602001600182028036833780820191505090505b5090505b60008514611c8a57600182611bf09190612dc0565b9150600a85611bff9190612f25565b6030611c0b9190612d39565b60f81b818381518110611c47577f4e487b7100000000000000000000000000000000000000000000000000000000600052603260045260246000fd5b60200101907effffffffffffffffffffffffffffffffffffffffffffffffffffffffffffff1916908160001a905350600a85611c839190612d8f565b9450611bdb565b8093505050505b919050565b600080823b905060008111915050919050565b828054611cb590612eaa565b90600052602060002090601f016020900481019282611cd75760008555611d1e565b82601f10611cf057805160ff1916838001178555611d1e565b82800160010185558215611d1e579182015b82811115611d1d578251825591602001919060010190611d02565b5b509050611d2b9190611d2f565b5090565b5b80821115611d48576000816000905550600101611d30565b5090565b6000611d5f611d5a84612c96565b612c65565b905082815260208101848484011115611d7757600080fd5b611d82848285612e68565b509392505050565b6000611d9d611d9884612cc6565b612c65565b905082815260208101848484011115611db557600080fd5b611dc0848285612e68565b509392505050565b600081359050611dd781613023565b92915050565b600081359050611dec8161303a565b92915050565b600081359050611e0181613051565b92915050565b600081519050611e1681613051565b92915050565b600082601f830112611e2d57600080fd5b8135611e3d848260208601611d4c565b91505092915050565b600082601f830112611e5757600080fd5b8135611e67848260208601611d8a565b91505092915050565b600081359050611e7f81613068565b92915050565b600060208284031215611e9757600080fd5b6000611ea584828501611dc8565b91505092915050565b60008060408385031215611ec157600080fd5b6000611ecf85828601611dc8565b9250506020611ee085828601611dc8565b9150509250929050565b600080600060608486031215611eff57600080fd5b6000611f0d86828701611dc8565b9350506020611f1e86828701611dc8565b9250506040611f2f86828701611e70565b9150509250925092565b60008060008060808587031215611f4f57600080fd5b6000611f5d87828801611dc8565b9450506020611f6e87828801611dc8565b9350506040611f7f87828801611e70565b925050606085013567ffffffffffffffff811115611f9c57600080fd5b611fa887828801611e1c565b91505092959194509250565b60008060408385031215611fc757600080fd5b6000611fd585828601611dc8565b9250506020611fe685828601611ddd565b9150509250929050565b60008060006060848603121561200557600080fd5b600061201386828701611dc8565b935050602084013567ffffffffffffffff81111561203057600080fd5b61203c86828701611e46565b925050604084013567ffffffffffffffff81111561205957600080fd5b61206586828701611e46565b9150509250925092565b6000806040838503121561208257600080fd5b600061209085828601611dc8565b92505060206120a185828601611e70565b9150509250929050565b6000602082840312156120bd57600080fd5b60006120cb84828501611df2565b91505092915050565b6000602082840312156120e657600080fd5b60006120f484828501611e07565b91505092915050565b60006020828403121561210f57600080fd5b600082013567ffffffffffffffff81111561212957600080fd5b61213584828501611e46565b91505092915050565b60006020828403121561215057600080fd5b600061215e84828501611e70565b91505092915050565b61217081612df4565b82525050565b61217f81612e06565b82525050565b600061219082612cf6565b61219a8185612d0c565b93506121aa818560208601612e77565b6121b381613012565b840191505092915050565b60006121c982612d01565b6121d38185612d1d565b93506121e3818560208601612e77565b6121ec81613012565b840191505092915050565b600061220282612d01565b61220c8185612d2e565b935061221c818560208601612e77565b80840191505092915050565b6000612235603283612d1d565b91507f4552433732313a207472616e7366657220746f206e6f6e20455243373231526560008301527f63656976657220696d706c656d656e74657200000000000000000000000000006020830152604082019050919050565b600061229b602683612d1d565b91507f4f776e61626c653a206e6577206f776e657220697320746865207a65726f206160008301527f64647265737300000000000000000000000000000000000000000000000000006020830152604082019050919050565b6000612301601c83612d1d565b91507f4552433732313a20746f6b656e20616c7265616479206d696e746564000000006000830152602082019050919050565b6000612341602483612d1d565b91507f4552433732313a207472616e7366657220746f20746865207a65726f2061646460008301527f72657373000000000000000000000000000000000000000000000000000000006020830152604082019050919050565b60006123a7601983612d1d565b91507f4552433732313a20617070726f766520746f2063616c6c6572000000000000006000830152602082019050919050565b60006123e7602c83612d1d565b91507f4552433732313a206f70657261746f7220717565727920666f72206e6f6e657860008301527f697374656e7420746f6b656e00000000000000000000000000000000000000006020830152604082019050919050565b600061244d603883612d1d565b91507f4552433732313a20617070726f76652063616c6c6572206973206e6f74206f7760008301527f6e6572206e6f7220617070726f76656420666f7220616c6c00000000000000006020830152604082019050919050565b60006124b3602a83612d1d565b91507f4552433732313a2062616c616e636520717565727920666f7220746865207a6560008301527f726f2061646472657373000000000000000000000000000000000000000000006020830152604082019050919050565b6000612519602983612d1d565b91507f4552433732313a206f776e657220717565727920666f72206e6f6e657869737460008301527f656e7420746f6b656e00000000000000000000000000000000000000000000006020830152604082019050919050565b600061257f602e83612d1d565b91507f45524337323155524953746f726167653a2055524920736574206f66206e6f6e60008301527f6578697374656e7420746f6b656e0000000000000000000000000000000000006020830152604082019050919050565b60006125e5602083612d1d565b91507f4552433732313a206d696e7420746f20746865207a65726f20616464726573736000830152602082019050919050565b6000612625603183612d1d565b91507f45524337323155524953746f726167653a2055524920717565727920666f722060008301527f6e6f6e6578697374656e7420746f6b656e0000000000000000000000000000006020830152604082019050919050565b600061268b602c83612d1d565b91507f4552433732313a20617070726f76656420717565727920666f72206e6f6e657860008301527f697374656e7420746f6b656e00000000000000000000000000000000000000006020830152604082019050919050565b60006126f1602083612d1d565b91507f4f776e61626c653a2063616c6c6572206973206e6f7420746865206f776e65726000830152602082019050919050565b6000612731602983612d1d565b91507f4552433732313a207472616e73666572206f6620746f6b656e2074686174206960008301527f73206e6f74206f776e00000000000000000000000000000000000000000000006020830152604082019050919050565b6000612797602f83612d1d565b91507f4552433732314d657461646174613a2055524920717565727920666f72206e6f60008301527f6e6578697374656e7420746f6b656e00000000000000000000000000000000006020830152604082019050919050565b60006127fd602183612d1d565b91507f4552433732313a20617070726f76616c20746f2063757272656e74206f776e6560008301527f72000000000000000000000000000000000000000000000000000000000000006020830152604082019050919050565b6000612863603183612d1d565b91507f4552433732313a207472616e736665722063616c6c6572206973206e6f74206f60008301527f776e6572206e6f7220617070726f7665640000000000000000000000000000006020830152604082019050919050565b60006128c9601483612d1d565b91507f496d61676520616c7265616479206578697374730000000000000000000000006000830152602082019050919050565b61290581612e5e565b82525050565b600061291782846121f7565b915081905092915050565b600061292e82856121f7565b915061293a82846121f7565b91508190509392505050565b600060208201905061295b6000830184612167565b92915050565b60006080820190506129766000830187612167565b6129836020830186612167565b61299060408301856128fc565b81810360608301526129a28184612185565b905095945050505050565b60006020820190506129c26000830184612176565b92915050565b600060208201905081810360008301526129e281846121be565b905092915050565b60006020820190508181036000830152612a0381612228565b9050919050565b60006020820190508181036000830152612a238161228e565b9050919050565b60006020820190508181036000830152612a43816122f4565b9050919050565b60006020820190508181036000830152612a6381612334565b9050919050565b60006020820190508181036000830152612a838161239a565b9050919050565b60006020820190508181036000830152612aa3816123da565b9050919050565b60006020820190508181036000830152612ac381612440565b9050919050565b60006020820190508181036000830152612ae3816124a6565b9050919050565b60006020820190508181036000830152612b038161250c565b9050919050565b60006020820190508181036000830152612b2381612572565b9050919050565b60006020820190508181036000830152612b43816125d8565b9050919050565b60006020820190508181036000830152612b6381612618565b9050919050565b60006020820190508181036000830152612b838161267e565b9050919050565b60006020820190508181036000830152612ba3816126e4565b9050919050565b60006020820190508181036000830152612bc381612724565b9050919050565b60006020820190508181036000830152612be38161278a565b9050919050565b60006020820190508181036000830152612c03816127f0565b9050919050565b60006020820190508181036000830152612c2381612856565b9050919050565b60006020820190508181036000830152612c43816128bc565b9050919050565b6000602082019050612c5f60008301846128fc565b92915050565b6000604051905081810181811067ffffffffffffffff82111715612c8c57612c8b612fe3565b5b8060405250919050565b600067ffffffffffffffff821115612cb157612cb0612fe3565b5b601f19601f8301169050602081019050919050565b600067ffffffffffffffff821115612ce157612ce0612fe3565b5b601f19601f8301169050602081019050919050565b600081519050919050565b600081519050919050565b600082825260208201905092915050565b600082825260208201905092915050565b600081905092915050565b6000612d4482612e5e565b9150612d4f83612e5e565b9250827fffffffffffffffffffffffffffffffffffffffffffffffffffffffffffffffff03821115612d8457612d83612f56565b5b828201905092915050565b6000612d9a82612e5e565b9150612da583612e5e565b925082612db557612db4612f85565b5b828204905092915050565b6000612dcb82612e5e565b9150612dd683612e5e565b925082821015612de957612de8612f56565b5b828203905092915050565b6000612dff82612e3e565b9050919050565b60008115159050919050565b60007fffffffff0000000000000000000000000000000000000000000000000000000082169050919050565b600073ffffffffffffffffffffffffffffffffffffffff82169050919050565b6000819050919050565b82818337600083830152505050565b60005b83811015612e95578082015181840152602081019050612e7a565b83811115612ea4576000848401525b50505050565b60006002820490506001821680612ec257607f821691505b60208210811415612ed657612ed5612fb4565b5b50919050565b6000612ee782612e5e565b91507fffffffffffffffffffffffffffffffffffffffffffffffffffffffffffffffff821415612f1a57612f19612f56565b5b600182019050919050565b6000612f3082612e5e565b9150612f3b83612e5e565b925082612f4b57612f4a612f85565b5b828206905092915050565b7f4e487b7100000000000000000000000000000000000000000000000000000000600052601160045260246000fd5b7f4e487b7100000000000000000000000000000000000000000000000000000000600052601260045260246000fd5b7f4e487b7100000000000000000000000000000000000000000000000000000000600052602260045260246000fd5b7f4e487b7100000000000000000000000000000000000000000000000000000000600052604160045260246000fd5b6000601f19601f8301169050919050565b61302c81612df4565b811461303757600080fd5b50565b61304381612e06565b811461304e57600080fd5b50565b61305a81612e12565b811461306557600080fd5b50565b61307181612e5e565b811461307c57600080fd5b5056fea2646970667358221220fbaeae433c936f16896d98ac8850eabe175f1bcd1c1c0e9b2b6ef0ef57f48c6964736f6c63430008000033",
  "immutableReferences": {},
  "source": "// SPDX-License-Identifier: MIT\npragma solidity ^0.8.0;\n\nimport \"@openzeppelin/contracts/token/ERC721/extensions/ERC721URIStorage.sol\";\nimport \"@openzeppelin/contracts/utils/Counters.sol\";\nimport \"@openzeppelin/contracts/access/Ownable.sol\";\n\ncontract ImageNFT is ERC721URIStorage, Ownable {\n    using Counters for Counters.Counter;\n    Counters.Counter private _tokenIds;\n\n    mapping(string => bool) private _imageHashes;\n\n    constructor() ERC721(\"ImageNFT\", \"IMGNFT\") {}\n\n    function mintNFT(address recipient, string memory tokenURI, string memory imageHash) \n        public onlyOwner returns (uint256) {\n        require(!_imageHashes[imageHash], \"Image already exists\");\n\n        _tokenIds.increment();\n\n        uint256 newItemId = _tokenIds.current();\n        _mint(recipient, newItemId);\n        _setTokenURI(newItemId, tokenURI);\n\n        _imageHashes[imageHash] = true;\n\n        return newItemId;\n    }\n\n    function verifyImage(string memory imageHash) public view returns (bool) {\n        return _imageHashes[imageHash];\n    }\n}",
  "sourcePath": "/Users/maebo/Documents/Programming/Weiterbildung/hello_ai_blockchain/nft_project/contracts/ImageNFT.sol",
  "compiler": {
    "name": "solc",
    "version": "0.8.0+commit.c7dfd78e.Emscripten.clang"
  },
  "schemaVersion": "3.4.16",
  "updatedAt": "2024-05-17T12:43:01.431Z",
  "networkType": "ethereum",
  "devdoc": {
    "kind": "dev",
    "methods": {
      "approve(address,uint256)": {
        "details": "See {IERC721-approve}."
      },
      "balanceOf(address)": {
        "details": "See {IERC721-balanceOf}."
      },
      "getApproved(uint256)": {
        "details": "See {IERC721-getApproved}."
      },
      "isApprovedForAll(address,address)": {
        "details": "See {IERC721-isApprovedForAll}."
      },
      "name()": {
        "details": "See {IERC721Metadata-name}."
      },
      "owner()": {
        "details": "Returns the address of the current owner."
      },
      "ownerOf(uint256)": {
        "details": "See {IERC721-ownerOf}."
      },
      "renounceOwnership()": {
        "details": "Leaves the contract without owner. It will not be possible to call `onlyOwner` functions anymore. Can only be called by the current owner. NOTE: Renouncing ownership will leave the contract without an owner, thereby removing any functionality that is only available to the owner."
      },
      "safeTransferFrom(address,address,uint256)": {
        "details": "See {IERC721-safeTransferFrom}."
      },
      "safeTransferFrom(address,address,uint256,bytes)": {
        "details": "See {IERC721-safeTransferFrom}."
      },
      "setApprovalForAll(address,bool)": {
        "details": "See {IERC721-setApprovalForAll}."
      },
      "supportsInterface(bytes4)": {
        "details": "See {IERC165-supportsInterface}."
      },
      "symbol()": {
        "details": "See {IERC721Metadata-symbol}."
      },
      "tokenURI(uint256)": {
        "details": "See {IERC721Metadata-tokenURI}."
      },
      "transferFrom(address,address,uint256)": {
        "details": "See {IERC721-transferFrom}."
      },
      "transferOwnership(address)": {
        "details": "Transfers ownership of the contract to a new account (`newOwner`). Can only be called by the current owner."
      }
    },
    "version": 1
  },
  "userdoc": {
    "kind": "user",
    "methods": {},
    "version": 1
  }
}